:020000040000FA
:100000000C9462000C948A000C948A000C948A0070
:100010000C948A000C948A000C948A000C948A0038
:100020000C948A000C948A000C948A000C94C802E8
:100030000C948A000C948A000C948A000C948A0018
:100040000C9426020C948A000C9496020C94700274
:100050000C948A000C948A000C948A000C948A00F8
:100060000C948A000C948A000000000024002700F1
:100070002A000000000023002600290000000000E4
:10008000250028002B0004040404040404040202D4
:100090000202020203030303030301020408102007
:1000A0004080010204081020010204081020000012
:1000B0000008000201000003040700000000000027
:1000C0000000840311241FBECFEFD8E0DEBFCDBFF8
:1000D00011E0A0E0B1E0EAE9FBE002C005900D927A
:1000E000A231B107D9F721E0A2E1B1E001C01D9230
:1000F000A13EB207E1F710E0C2E6D0E004C02197CC
:10010000FE010E94C505C136D107C9F70E94E1036F
:100110000C94CB050C940000E091DE01EC3088F5E6
:100120004091DF0128E830E0241B310947FD339579
:10013000220F331F220F331F8217930784F0409141
:10014000E00128E532E0241B310947FD3395220FF9
:10015000331F220F331F821793070CF49C01225088
:100160003109220F331F4FB7F8948E2F90E0FC0116
:10017000EE0FFF1FE80FF91FE754FE4F3283218374
:100180004FBF0895833081F028F4813099F0823098
:10019000A9F008958730A9F08830C9F08430B1F40F
:1001A000809180008F7D03C0809180008F77809345
:1001B0008000089584B58F7784BD089584B58F7DC0
:1001C000FBCF8091B0008F778093B000089580912D
:1001D000B0008F7DF9CF1F93CF93DF93282F30E0AE
:1001E000F901E255FF4F8491F901E656FF4FD49192
:1001F000F901EA57FF4FC491CC23A9F0162F8111C2
:100200000E94C200EC2FF0E0EE0FFF1FE458FF4FFA
:10021000A591B4918FB7F894EC91111108C0D095C5
:10022000DE23DC938FBFDF91CF911F910895DE2BEA
:10023000F8CFAF92BF92CF92DF92EF92FF920F93DF
:100240001F93CF93DF936C017B018B01040F151F6C
:10025000EB015E01AE18BF08C017D10759F06991D4
:10026000D601ED91FC910190F081E02DC601099538
:10027000892B79F7C501DF91CF911F910F91FF90E5
:10028000EF90DF90CF90BF90AF900895FC01538D19
:10029000448D252F30E0842F90E0821B930B541760
:1002A00010F0CF96089501970895FC01918D828DED
:1002B000981761F0A28DAE0FBF2FB11D5D968C9186
:1002C000928D9F5F9F73928F90E008958FEF9FEFC5
:1002D0000895FC01918D828D981731F0828DE80F81
:1002E000F11D858D90E008958FEF9FEF0895FC013B
:1002F000918D228D892F90E0805C9F4F821B910908
:100300008F73992708958CE191E00E94770121E095
:10031000892B09F420E0822F089580E090E0892B5A
:1003200029F00E94830181110C9400000895FC01C2
:10033000A48DA80FB92FB11DA35ABF4F2C91848D46
:1003400090E001968F739927848FA689B7892C93A3
:10035000A089B1898C91837080648C93938D848DF6
:10036000981306C00288F389E02D80818F7D8083F9
:100370000895EF92FF920F931F93CF93DF93EC01B9
:1003800081E0888F9B8D8C8D98131AC0E889F9893C
:10039000808185FF15C09FB7F894EE89FF8960833F
:1003A000E889F98980818370806480839FBF81E0C0
:1003B00090E0DF91CF911F910F91FF90EF90089502
:1003C000F62E0B8D10E00F5F1F4F0F731127E02EDD
:1003D0008C8D8E110CC00FB607FCFACFE889F98915
:1003E000808185FFF5CFCE010E949701F1CFEB8D83
:1003F000EC0FFD2FF11DE35AFF4FF0829FB7F894E9
:100400000B8FEA89FB8980818062CFCFCF93DF9306
:10041000EC01888D8823B9F0AA89BB89E889F9891C
:100420008C9185FD03C0808186FD0DC00FB607FC51
:10043000F7CF8C9185FFF2CF808185FFEDCFCE0184
:100440000E949701E9CFDF91CF9108951F920F92FB
:100450000FB60F9211242F933F938F939F93AF93D7
:10046000BF938091180190911901A0911A01B09148
:100470001B013091170123E0230F2D3758F501960A
:10048000A11DB11D209317018093180190931901AC
:10049000A0931A01B0931B01809113019091140154
:1004A000A0911501B09116010196A11DB11D809377
:1004B000130190931401A0931501B0931601BF91FD
:1004C000AF919F918F913F912F910F900FBE0F9001
:1004D0001F90189526E8230F0296A11DB11DD2CFBB
:1004E0001F920F920FB60F9211242F933F934F93A9
:1004F0005F936F937F938F939F93AF93BF93EF938C
:10050000FF938CE191E00E949701FF91EF91BF91E1
:10051000AF919F918F917F916F915F914F913F919B
:100520002F910F900FBE0F901F9018951F920F9252
:100530000FB60F9211242F938F939F93EF93FF93F6
:10054000E0912C01F0912D018081E0913201F09138
:10055000330182FD1BC09081809135018F5F8F73C5
:1005600020913601821741F0E0913501F0E0E45E20
:10057000FE4F958F80933501FF91EF919F918F9161
:100580002F910F900FBE0F901F9018958081F4CF80
:100590001F920F920FB60F9211242F933F934F93F8
:1005A0005F936F937F938F939F93AF93BF93CF93FB
:1005B000DF93EF93FF9380911201C091DD01D0E0B2
:1005C00087FF24C010928500109284008091120150
:1005D0008F5F8093120180911201082E000C990BFD
:1005E0008C179D0724F4809112018C30C4F1809106
:1005F000840090918500049680349C4908F47AC068
:100600008091840090918500049676C080911201BB
:10061000082E000C990B8C179D07C4F6E09112016F
:100620008E2FEE0F990BFC01EE0FFF1FE80FF91F45
:10063000E754FE4F808186FFC9CFE09112018E2FD3
:10064000EE0F990BFC01EE0FFF1FE80FF91FE754A7
:10065000FE4F808160E08F730E94EB00B7CF209146
:10066000840030918500E09112018E2FEE0F990BDE
:10067000FC01EE0FFF1FE80FF91FE754FE4F8181C9
:100680009281820F931F9093890080938800E0915C
:1006900012018E2FEE0F990BFC01EE0FFF1FE80FDA
:1006A000F91FE754FE4F808186FF11C0E0911201CF
:1006B0008E2FEE0F990BFC01EE0FFF1FE80FF91FB5
:1006C000E754FE4F808161E08F730E94EB00FF9141
:1006D000EF91DF91CF91BF91AF919F918F917F91DA
:1006E0006F915F914F913F912F910F900FBE0F909F
:1006F0001F90189580E49CE990938900809388006E
:100700008FEF80931201E3CF10921F0110921E0110
:1007100088EE93E0A0E0B0E0809320019093210167
:10072000A0932201B093230184E091E090931D01F6
:1007300080931C0185EC90E090932901809328011F
:1007400084EC90E090932B0180932A0180EC90E060
:1007500090932D0180932C0181EC90E090932F01D8
:1007600080932E0182EC90E09093310180933001D0
:1007700086EC90E090933301809332011092350122
:100780001092360110923701109238018091DD01EC
:100790008C3098F491E0980F9093DD018093DE0106
:1007A00090E0FC01EE0FFF1FE80FF91FE754FE4F2A
:1007B00088EB9BE09283818308958FEF8093DE0125
:1007C0000895789484B5826084BD84B5816084BDC9
:1007D00085B5826085BD85B5816085BD80916E00DF
:1007E000816080936E001092810080918100826010
:1007F000809381008091810081608093810080914D
:1008000080008160809380008091B100846080933B
:10081000B1008091B00081608093B00080917A0037
:10082000846080937A0080917A00826080937A005D
:1008300080917A00816080937A0080917A0080684C
:1008400080937A001092C100E0912C01F0912D016B
:1008500082E08083E0912801F09129011082E091EB
:100860002A01F0912B018FEC808310923401E091EA
:100870003001F091310186E08083E0912E01F0910A
:100880002F01808180618083E0912E01F0912F0102
:10089000808188608083E0912E01F0912F0180811A
:1008A00080688083E0912E01F0912F0180818F7DFF
:1008B00080834FE9242E40E0342EF1012491CBE8CF
:1008C000D0E0FE0184918823C9F090E0880F991F41
:1008D000FC01E859FF4FA591B491FC01E458FF4F8A
:1008E000459154913FB7F8949C91822F809598231D
:1008F0009C93FA019081892380833FBF8091DE0120
:100900008C3008F068C0E3EAF0E02491EFE8F0E012
:100910008491882399F090E0880F991FFC01E85991
:10092000FF4FA591B491FC01E458FF4F859194913C
:100930008FB7F894EC91E22BEC938FBF8091DE019E
:10094000282F30E0F901EE0FFF1FE20FF31FE754ED
:10095000FE4F9081907C996090831092DF011092FD
:10096000E0012CE0622F0E94B905829FB0011124A2
:1009700030E020E0AB01420F531FFA01EE0FFF1FE2
:10098000E40FF51FE754FE4F908196FD16C02F5FD0
:100990003F4F2C30310571F781110FC0109280004C
:1009A00082E0809381001092850010928400B19AB9
:1009B00080916F00826080936F00E091DE018E2F46
:1009C00090E0FC01EE0FFF1FE80FF91FE754FE4F08
:1009D00080818064808308E810E068E5C62E62E0CC
:1009E000D62E74EB872E912CA12CB12CE0E0EE2EAC
:1009F000E0E0FE2EE3EBF0E08491F1017490FE0163
:100A00006490662009F44DC081110E94C200E62D59
:100A1000F0E0EE0FFF1FEE58FF4FA591B4918C91BF
:100A2000782209F43EC08091DF012801481A51085C
:100A300087FD5394440C551C440C551C052C000C8C
:100A4000660877088091E0019601281B310987FD2F
:100A50003395220F331F220F331F032E000C440B3C
:100A6000550B2419350946095709AAE5B0E00E943B
:100A70007D05A50194010E945E05DA01C901840D7E
:100A8000951DA61DB71D0E948C00E114F10409F408
:100A9000B1CF0E948301882309F4ACCF0E940000EB
:100AA000A9CF8091DF019801281B310987FD33957B
:100AB000C901880F991F880F991FE5CF052E97FB55
:100AC0001EF400940E94750557FD07D00E9488050A
:100AD00007FC03D04EF40C94750550954095309565
:100AE00021953F4F4F4F5F4F08959095809570959A
:100AF00061957F4F8F4F9F4F08950E94AA05A59F34
:100B0000900DB49F900DA49F800D911D1124089508
:100B1000A1E21A2EAA1BBB1BFD010DC0AA1FBB1F01
:100B2000EE1FFF1FA217B307E407F50720F0A21B73
:100B3000B30BE40BF50B661F771F881F991F1A94E0
:100B400069F760957095809590959B01AC01BD010A
:100B5000CF010895A29FB001B39FC001A39F700D64
:100B6000811D1124911DB29F700D811D1124911DB5
:100B70000895991B79E004C0991F961708F0961BF9
:100B8000881F7A95C9F780950895EE0FFF1F05908D
:100B9000F491E02D0994F894FFCF00000000B90112
:0C0BA000190146010602770155016901A8
:107E0000112484B714BE81FFF0D085E080938100F7
:107E100082E08093C00088E18093C10086E0809377
:107E2000C20080E18093C4008EE0C9D0259A86E02C
:107E300020E33CEF91E0309385002093840096BBD3
:107E4000B09BFECF1D9AA8958150A9F7CC24DD24C4
:107E500088248394B5E0AB2EA1E19A2EF3E0BF2EE7
:107E6000A2D0813461F49FD0082FAFD0023811F036
:107E7000013811F484E001C083E08DD089C08234E0
:107E800011F484E103C0853419F485E0A6D080C0E4
:107E9000853579F488D0E82EFF2485D0082F10E0AE
:107EA000102F00270E291F29000F111F8ED06801E7
:107EB0006FC0863521F484E090D080E0DECF843638
:107EC00009F040C070D06FD0082F6DD080E0C81688
:107ED00080E7D80618F4F601B7BEE895C0E0D1E017
:107EE00062D089930C17E1F7F0E0CF16F0E7DF06D8
:107EF00018F0F601B7BEE89568D007B600FCFDCFD4
:107F0000A601A0E0B1E02C9130E011968C91119780
:107F100090E0982F8827822B932B1296FA010C0160
:107F200087BEE89511244E5F5F4FF1E0A038BF0790
:107F300051F7F601A7BEE89507B600FCFDCF97BE46
:107F4000E89526C08437B1F42ED02DD0F82E2BD052
:107F50003CD0F601EF2C8F010F5F1F4F84911BD097
:107F6000EA94F801C1F70894C11CD11CFA94CF0C13
:107F7000D11C0EC0853739F428D08EE10CD085E9AC
:107F80000AD08FE07ACF813511F488E018D01DD067
:107F900080E101D065CF982F8091C00085FFFCCF94
:107FA0009093C60008958091C00087FFFCCF809118
:107FB000C00084FD01C0A8958091C6000895E0E648
:107FC000F0E098E1908380830895EDDF803219F02E
:107FD00088E0F5DFFFCF84E1DECF1F93182FE3DFCA
:107FE0001150E9F7F2DF1F91089580E0E8DFEE27F6
:047FF000FF270994CA
:027FFE00040479
:00000001FF
